:060000000200290204BF0A
:03000B0002031FCE
:0100130032BA
:01001B0032B2
:030023000203F8DD
:200082007822760078237610782476387825765478267610782776107828761078297600F6
:2000A200782A7600782BE4F608F608F608F608F608F608F608F67873760078747600787507
:1200C20076027876F608F6C200D201C202C2030200268C
:030026000206616E
:2000D40043923F5391C0C294C295C290D290C291225392C05391C0C294C295C290D29122B1
:2000F400AF82C294C2957E00C2958EF005F07C017D008006EC2CFCED33FDD5F0F78F027B4D
:2001140000EA5204EB5205EC4D6004D2928002C2928EF005F07C017D008006EC2CFCED334B
:20013400FDD5F0F7AA107B00EA5204EB5205EC4D6004D2938002C293D2950EBE080040A83F
:20015400D29422AF8274F825114018AE118EF005F07401800225E0D5F0FBF582EFF4F5108B
:200174001200F422782AE62422F98782782A8607782AEF04F68F11120157782AB60800400F
:2001940004782A760022AF82BF2000500302030578227600782376007829E4F6FEEF24E013
:2001B400F516EE34FFF517900005120676AE82AF837D008D0474022C2422F98D037C00EB88
:2001D4002EFBEC3FFCEB2497F582EC3406F583E49330E0067B807CFF80047B007C008D02F3
:2001F4007C00EA2EFAEC3FFCEA2497F582EC3406F583E49330E1067A407C0080047A007C3E
:2002140000EA2BFC8D027B00EA2EFAEB3FFBEA2497F582EB3406F583E49330E2067A207B1B
:200234000080047A007B00EA2CFC8D027B00EA2EFAEB3FFBEA2497F582EB3406F583E493AE
:2002540030E3067A107B0080047A007B00EA2CFC8D027B00EA2EFAEB3FFBEA2497F582EB99
:200274003406F583E49330E4067A087B0080047A007B00EA2CFC8D027B00EA2EFAEB3FFB5E
:20029400EA2497F582EB3406F583E49330E5067A047B0080047A007B00EA2CFC8D027B0071
:2002B400EA2EFAEB3FFBEA2497F582EB3406F583E49330E6067A027B0080047A007B00EA4D
:2002D4002CFC8D027B00EA2EFAEB3FFBEA2497F582EB3406F583E49330E7067A017B0080DE
:2002F400047A007B00EA2CF70DBD050050030201C722438E805389F0758A67758C7ED28C76
:20031400D2A9D2AF53B1F743B20822C021C0E0C0F0C082C083C007C006C005C004C003C064
:2003340002C001C000C0D075D008782B06B600200806B6001B0806B600160806B600110834
:2003540006B6000C0806B600070806B6000208067873E6603B78751630010C300132787328
:200374007974C3E79640297875C3748086F063F08095F0401B78738612751300758233755C
:20039400D00012051B75D0087873760078747600B2B375D00012051775D008D0D0D000D0D2
:2003B40001D002D003D004D005D006D007D083D082D0F0D0E0D0213285A2E053E03F85E017
:2003D400A275985075D7B875D6FF438E14438E01D2ACD2AF22AF822000FD8FE0A2D0D200E3
:2003F40085E09922C021C0E0C0F0C082C083C007C006C005C004C003C002C001C000C0D067
:2004140075D0001099028002C200309835787386077873EF04F6EF2433F8A699300102D2C9
:20043400027873B64000401475144075150075823312064478737600787476007875760270
:20045400C298D0D0D000D001D002D003D004D005D006D007D083D082D0F0D0E0D02132308A
:20047400012F30023278747973C3E6975014787486077874EF04F6EF2433F987821203E9C4
:2004940080E378747973C3E796500C7874760080067873E67874F6C2022253B1FB53B2FBF1
:2004B400D2B2D2B2C288D2A8D2AF22C021C0E0C0F0C082C083C007C006C005C004C003C06A
:2004D40002C001C000C0D075D000108C028014C2A9782BE4F608F608F608F608F608F60898
:2004F400F608F612031FD0D0D000D001D002D003D004D005D006D007D083D082D0F0D0E06F
:20051400D0213212017822A9827401B5120614B51302800280218707BF2000400EBF80008F
:2005340050098F82C00112019AD0018707BFFF02D201EF7002C2017402B51206E4B51302C8
:200554008002801F20011CD203E904F886078F067F0087057C00ED2FFFEC3EFE7876A607E8
:2005740008A6067403B51206E4B513028002804987077E00E904F886058D04E42FFDEC3E2F
:20059400FC7876E6B5050708E6B5040280028029740229F88607BF20004012BF8000500DF1
:2005B4008F82C001C00012019AD000D0018607BFFF02D201EF7002C2017408B51206E4B521
:2005D4001302800280197F00EF2422F8EF29FEC000A8068606D000A6060FBF080040E9742C
:2005F4000AB51206E4B513028002804387077E00E904F886058D04E42FFDEC3EFC7876E606
:20061400B5050708E6B50402800280237F00EF2422F88F057E0074022DFDE43EED29FEC0E3
:2006340000A8068606D000A6060FBF080040DF22223003187876E604F5821203E9787674BD
:200654000126E40836F5821203E9C203221203061204AE1203CC1200D412047312064580D5
:02067400F8226A
:20069700000000000000005F00000007000700147F147F14242A072A122313086462374987
:2006B7005522500005030000001C2241000041221C00082A1C2A0808083E080800503000F8
:2006D700000808080808006060000020100804023E5149453E00427F4000426151494621DD
:2006F70041454B311814127F1027454545393C4A494930017109050336494949360649493B
:20071700291E003636000000563600000008142241141414141441221408000201510906BE
:20073700324979413E7E1111117E7F494949363E414141227F4141221C7F494949417F09EB
:200757000901013E414151327F0808087F00417F41002040413F017F081422417F404040FF
:20077700407F0204027F7F0408107F3E4141413E7F090909063E4151215E7F09192946467E
:200797004949493101017F01013F4040403F1F2040201F7F2018207F6314081463030478EC
:2007B7000403615149454300007F4141020408102041417F0000040201020440404040400B
:2007D700000102040020545454787F484444383844444420384444487F3854545418087E63
:2007F700090102081454543C7F0804047800447D40002040443D00007F10284400417F40F2
:20081700007C041804787C0804047838444444387C14141408081414187C7C08040408480D
:2008370054545420043F4440203C4040207C1C2040201C3C4030403C44281028440C5050D2
:20085700503C4464544C44000836410000007F000000413608000201020402FFFFFFFFFFE6
:06005800E478FFF6D8FD7C
:200036007900E94400601B7A00900877780175A000E493F2A308B8000205A0D9F4DAF275F1
:02005600A0FF09
:1D067600E5828516F0A4C582C0F08517F0A4D0F025F0C5838516F0A42583F583221C
:20005E007800E84400600A790175A000E4F309D8FC7800E84400600C7900900001E4F0A3A0
:04007E00D8FCD9FAD7
:0D002900758177120693E5826003020026C0
:04069300758200224A
:00000001FF
