:04000000020029329F
:03000B000201826D
:0100130032BA
:01001B0032B2
:03002300020219BD
:20008200752C00752200752310752438752554752610752710752810752900E4F52DF52EF4
:1100A200F52FF530F531F532F533F534C2000200267C
:0300260002022AA9
:2000B30043923F5391C0C294C295C290D290C291225392C05391C0C294C295C290D29122D2
:2000D300AF82C294C2957E00C2958EF005F07C017D008006EC2CFCED33FDD5F0F78F027B6E
:2000F30000EA5204EB5205EC4D6004D2928002C2928EF005F07C017D008006EC2CFCED336D
:20011300FDD5F0F7AA2A7B00EA5204EB5205EC4D6004D2938002C293D2950EBE080040A846
:20013300D29422AF8274F8252B4017AE2B8EF005F07401800225E0D5F0FBF4F52A8F8212A2
:2001530000D322E52C2422F98782852C2B052C12013674F8252C5003752C0022438E805371
:2001730089F0758A67758C7ED28CD2A9D2AF22C021C0E0C0F0C082C083C007C006C005C0CA
:2001930004C003C002C001C000C0D075D008052DE4B52D20052EB52E1B052FB52F160530B9
:2001B300B530110531B5310C0532B532070533B53302053475D00012022675D008D0D0D052
:2001D30000D001D002D003D004D005D006D007D083D082D0F0D0E0D0213285A2E053E03F8F
:2001F30085E0A275985075D7B875D6FF438E14438E01D2ACD2AF22AF822000FD8FE0A2D033
:20021300D20085E099221099028002C2001098028000321201562212016F1201ED1200B3BC
:20023300753DE8753E03E4F53FF540F541F542F543F544852D82852E83852FF0E530AC3130
:20025300AD32AE33AF3412033F85823585833685F037F5388C398D3A8E3B8F3CE53545368C
:20027300453745384539453A453B453C70B2C3E52E94FAE52F9400E5309400E5319400E50E
:20029300329400E5339400E534940040937F00EF2422F876FF0FC3EF6480948840F1753D94
:2002B300E8753E03E4F53FF540F541F542F543F544852D82852E83852FF0E530AC31AD3283
:2002D300AE33AF3412047885823585833685F037F5388C398D3A8E3B8F3C53353F753600D4
:2002F300753700753800753900753A00753B00753C00AF357E00753D088E3E8F828E83C00A
:2003130007C00612059EAC82D006D007EC2422F987055307077E008FF005F0740180022547
:0C033300E0D5F0FBF4FF5DF7020233227E
:06005800E478FFF6D8FD7C
:200036007900E94400601B7A009005DA780175A000E493F2A308B8000205A0D9F4DAF27591
:02005600A0FF09
:20033F0085824585834685F047F5488C498D4A8E4B8F4C7F007E00E544235401FD600302AB
:20035F0003DEE53D253DF53DE53E33F53EE53F33F53FE54033F540E54133F541E54233F568
:20037F0042E54333F543E54433F544C3E545953DE546953EE547953FE5489540E549954131
:20039F00E54A9542E54B9543E54C9544502BE544C313F544E54313F543E54213F542E54169
:2003BF0013F541E54013F540E53F13F53FE53E13F53EE53D13F53D80060E8E07020356C3E6
:2003DF00E545953DE546953EE547953FE5489540E5499541E54A9542E54B9543E54C9544E6
:2003FF004031E545C3953DF545E546953EF546E547953FF547E5489540F548E5499541F5C7
:20041F0049E54A9542F54AE54B9543F54BE54C9544F54CE544C313F544E54313F543E542CA
:20043F0013F542E54113F541E54013F540E53F13F53FE53E13F53EE53D13F53D8F061FEE9A
:19045F0060030203DE8545828546838547F0E548AC49AD4AAE4BAF4C22B9
:2004780085824585834685F047F5488C498D4A8E4B8F4CE4F54DF54EF54FF550F551F552F2
:20049800F553F554755540E54C235401F556E5452545F545E54633F546E54733F547E54886
:2004B80033F548E54933F549E54A33F54AE54B33F54BE54C33F54CE54D254DF54DE54E33E0
:2004D800F54EE54F33F54FE55033F550E55133F551E55233F552E55333F553E55433F554A1
:2004F800E5566003434D01C3E54D953DE54E953EE54F953FE5509540E5519541E5529542BC
:20051800E5539543E55495444034E54DC3953DF54DE54E953EF54EE54F953FF54FE55095C5
:2005380040F550E5519541F551E5529542F552E5539543F553E5549544F554434501E55501
:1D05580014FF8F55600302049F8545828546838547F0E548AC49AD4AAE4BAF4C2202
:20005E007800E84400600A790175A000E4F309D8FC7800E84400600C7900900001E4F0A3A0
:04007E00D8FCD9FAD7
:200575007A10E4FBFCE58225E0F582E58333F583EB33FBEC33FCEB953DF5F0EC953E400630
:09059500FCABF0438201DADD2227
:0D0029007581561205D6E58260030200269F
:20059E00C2D5E58330E70DD2D5E4C39582F582E49583F583E53E30E70DB2D5E4C3953DF58E
:1805BE003DE4953EF53E12057530D50BE4C39582F582E49583F5832297
:0405D6007582002208
:00000001FF
