:060000000200290204B811
:03000B00020318D5
:0100130032BA
:01001B0032B2
:030023000203F1E4
:200082007822760078237610782476387825765478267610782776107828761078297600F6
:2000A200782A7600782BE4F608F608F608F608F608F608F608F67873760078747600787507
:0B00C2007602C200D201C2020200263A
:0300260002056C64
:2000CD0043923F5391C0C294C295C290D290C291225392C05391C0C294C295C290D29122B8
:2000ED00AF82C294C2957E00C2958EF005F07C017D008006EC2CFCED33FDD5F0F78F027B54
:20010D0000EA5204EB5205EC4D6004D2928002C2928EF005F07C017D008006EC2CFCED3352
:20012D00FDD5F0F7AA107B00EA5204EB5205EC4D6004D2938002C293D2950EBE080040A846
:20014D00D29422AF8274F825114018AE118EF005F07401800225E0D5F0FBF582EFF4F51092
:20016D001200ED22782AE62422F98782782A8607782AEF04F68F11120150782AB608004024
:20018D0004782A760022AF82BF200050030202FE78227600782376007829E4F6FEEF24E022
:2001AD00F516EE34FFF51790000512057EAE82AF837D008D0474022C2422F98D037C00EB88
:2001CD002EFBEC3FFCEB249FF582EC3405F583E49330E0067B807CFF80047B007C008D02F3
:2001ED007C00EA2EFAEC3FFCEA249FF582EC3405F583E49330E1067A407C0080047A007C3E
:20020D0000EA2BFC8D027B00EA2EFAEB3FFBEA249FF582EB3405F583E49330E2067A207B1B
:20022D000080047A007B00EA2CFC8D027B00EA2EFAEB3FFBEA249FF582EB3405F583E493AE
:20024D0030E3067A107B0080047A007B00EA2CFC8D027B00EA2EFAEB3FFBEA249FF582EB98
:20026D003405F583E49330E4067A087B0080047A007B00EA2CFC8D027B00EA2EFAEB3FFB66
:20028D00EA249FF582EB3405F583E49330E5067A047B0080047A007B00EA2CFC8D027B0071
:2002AD00EA2EFAEB3FFBEA249FF582EB3405F583E49330E6067A027B0080047A007B00EA4D
:2002CD002CFC8D027B00EA2EFAEB3FFBEA249FF582EB3405F583E49330E7067A017B0080DE
:2002ED00047A007B00EA2CF70DBD050050030201C022438E805389F0758A67758C7ED28C84
:20030D00D2A9D2AF53B1F743B20822C021C0E0C0F0C082C083C007C006C005C004C003C06B
:20032D0002C001C000C0D075D008782B06B600200806B6001B0806B600160806B60011083B
:20034D0006B6000C0806B600070806B6000208067873E6603B78751630010C30013278732F
:20036D007974C3E79640297875C3748086F063F08095F0401B787386127513007582337563
:20038D00D00012051475D0087873760078747600B2B375D00012051075D008D0D0D000D0E7
:2003AD0001D002D003D004D005D006D007D083D082D0F0D0E0D0213285A2E053E03F85E01E
:2003CD00A275985075D7B875D6FF438E14438E01D2ACD2AF22AF822000FD8FE0A2D0D200EA
:2003ED0085E09922C021C0E0C0F0C082C083C007C006C005C004C003C002C001C000C0D06E
:20040D0075D0001099028002C200309835787386077873EF04F6EF2433F8A699300102D2D0
:20042D00027873B64000401475144075150075823312056B78737600787476007875760251
:20044D00C298D0D0D000D001D002D003D004D005D006D007D083D082D0F0D0E0D021323091
:20046D00012F30023278747973C3E6975014787486077874EF04F6EF2433F987821203E2D2
:20048D0080E378747973C3E796500C7874760080067873E67874F6C2022253B1FB53B2FBF8
:2004AD00D2B2D2B2C288D2A8D2AF22C021C0E0C0F0C082C083C007C006C005C004C003C071
:2004CD0002C001C000C0D075D000108C028014C2A9782BE4F608F608F608F608F608F6089F
:2004ED00F608F6120318D0D0D000D001D002D003D004D005D006D007D083D082D0F0D0E07D
:20050D00D0213212017122A9827401B5120614B51302800280218707BF2000400EBF80009D
:20052D0050098F82C001120193D0018707BFFF02D201EF7002C2017408B51206E4B51302D0
:20054D00800280197F00EF2422F8EF29FEC000A8068606D000A6060FBF080040E9222212E6
:11056D0002FF1204A71203C51200CD12046C80FB22E7
:20059F00000000000000005F00000007000700147F147F14242A072A122313086462374980
:2005BF005522500005030000001C2241000041221C00082A1C2A0808083E080800503000F1
:2005DF00000808080808006060000020100804023E5149453E00427F4000426151494621D6
:2005FF0041454B311814127F1027454545393C4A4949300171090503364949493606494934
:20061F00291E003636000000563600000008142241141414141441221408000201510906B7
:20063F00324979413E7E1111117E7F494949363E414141227F4141221C7F494949417F09E4
:20065F000901013E414151327F0808087F00417F41002040413F017F081422417F404040F8
:20067F00407F0204027F7F0408107F3E4141413E7F090909063E4151215E7F091929464677
:20069F004949493101017F01013F4040403F1F2040201F7F2018207F6314081463030478E5
:2006BF000403615149454300007F4141020408102041417F00000402010204404040404004
:2006DF00000102040020545454787F484444383844444420384444487F3854545418087E5C
:2006FF00090102081454543C7F0804047800447D40002040443D00007F10284400417F40EB
:20071F00007C041804787C0804047838444444387C14141408081414187C7C080404084806
:20073F0054545420043F4440203C4040207C1C2040201C3C4030403C44281028440C5050CB
:20075F00503C4464544C44000836410000007F000000413608000201020402FFFFFFFFFFDF
:06005800E478FFF6D8FD7C
:200036007900E94400601B7A0090077F780175A000E493F2A308B8000205A0D9F4DAF275EA
:02005600A0FF09
:1D057E00E5828516F0A4C582C0F08517F0A4D0F025F0C5838516F0A42583F5832215
:20005E007800E84400600A790175A000E4F309D8FC7800E84400600C7900900001E4F0A3A0
:04007E00D8FCD9FAD7
:0D00290075817512059BE5826003020026BB
:04059B007582002243
:00000001FF
