:060000000200290204C108
:03000B00020321CC
:0100130032BA
:01001B0032B2
:030023000203FADB
:200082007822760078237610782476387825765478267610782776107828761078297600F6
:2000A200782A7600782BE4F608F608F608F608F608F608F608F67873760078747600787507
:1400C20076027876F608F6C200D201C202C203C204020026C4
:030026000206745B
:2000D60043923F5391C0C294C295C290D290C291225392C05391C0C294C295C290D29122AF
:2000F600AF82C294C2957E00C2958EF005F07C017D008006EC2CFCED33FDD5F0F78F027B4B
:2001160000EA5204EB5205EC4D6004D2928002C2928EF005F07C017D008006EC2CFCED3349
:20013600FDD5F0F7AA107B00EA5204EB5205EC4D6004D2938002C293D2950EBE080040A83D
:20015600D29422AF8274F825114018AE118EF005F07401800225E0D5F0FBF582EFF4F51089
:200176001200F622782AE62422F98782782A8607782AEF04F68F11120159782AB608004009
:2001960004782A760022AF82BF2000500302030778227600782376007829E4F6FEEF24E00F
:2001B600F516EE34FFF51790000512068CAE82AF837D008D0474022C2422F98D037C00EB70
:2001D6002EFBEC3FFCEB24ADF582EC3406F583E49330E0067B807CFF80047B007C008D02DB
:2001F6007C00EA2EFAEC3FFCEA24ADF582EC3406F583E49330E1067A407C0080047A007C26
:2002160000EA2BFC8D027B00EA2EFAEB3FFBEA24ADF582EB3406F583E49330E2067A207B03
:200236000080047A007B00EA2CFC8D027B00EA2EFAEB3FFBEA24ADF582EB3406F583E49396
:2002560030E3067A107B0080047A007B00EA2CFC8D027B00EA2EFAEB3FFBEA24ADF582EB81
:200276003406F583E49330E4067A087B0080047A007B00EA2CFC8D027B00EA2EFAEB3FFB5C
:20029600EA24ADF582EB3406F583E49330E5067A047B0080047A007B00EA2CFC8D027B0059
:2002B600EA2EFAEB3FFBEA24ADF582EB3406F583E49330E6067A027B0080047A007B00EA35
:2002D6002CFC8D027B00EA2EFAEB3FFBEA24ADF582EB3406F583E49330E7067A017B0080C6
:2002F600047A007B00EA2CF70DBD050050030201C922438E805389F0758A67758C7ED28C72
:20031600D2A9D2AF53B1F743B20822C021C0E0C0F0C082C083C007C006C005C004C003C062
:2003360002C001C000C0D075D008782B06B600200806B6001B0806B600160806B600110832
:2003560006B6000C0806B600070806B6000208067873E6603B78751630010C300132787326
:200376007974C3E79640297875C3748086F063F08095F0401B78738612751300758233755A
:20039600D00012051D75D0087873760078747600B2B375D00012051975D008D0D0D000D0CC
:2003B60001D002D003D004D005D006D007D083D082D0F0D0E0D0213285A2E053E03F85E015
:2003D600A275985075D7B875D6FF438E14438E01D2ACD2AF22AF822000FD8FE0A2D0D200E1
:2003F60085E09922C021C0E0C0F0C082C083C007C006C005C004C003C002C001C000C0D065
:2004160075D0001099028002C200309835787386077873EF04F6EF2433F8A699300102D2C7
:20043600027873B64000401475144075150075823312064B78737600787476007875760267
:20045600C298D0D0D000D001D002D003D004D005D006D007D083D082D0F0D0E0D021323088
:20047600012F30023278747973C3E6975014787486077874EF04F6EF2433F987821203EBC0
:2004960080E378747973C3E796500C7874760080067873E67874F6C2022253B1FB53B2FBEF
:2004B600D2B2D2B2C288D2A8D2AF22C021C0E0C0F0C082C083C007C006C005C004C003C068
:2004D60002C001C000C0D075D000108C028014C2A9782BE4F608F608F608F608F608F60896
:2004F600F608F6120321D0D0D000D001D002D003D004D005D006D007D083D082D0F0D0E06B
:20051600D0213212017A22A9827401B5120614B51302800280268707BF2000400EBF800086
:2005360050098F82C00112019CD0018707BFFF07200102D204D201EF7002C2017402B5127A
:2005560006E4B513028002801F20011CD203E904F886078F067F0087057C00ED2FFFEC3ECB
:20057600FE7876A60708A6067403B51206E4B513028002804987077E00E904F886058D04CE
:20059600E42FFDEC3EFC7876E6B5050708E6B5040280028029740229F88607BF2000401251
:2005B600BF8000500D8F82C001C00012019CD000D0018607BFFF02D201EF7002C2017408E7
:2005D600B51206E4B51302800280197F00EF2422F8EF29FEC000A8068606D000A6060FBF69
:2005F600080040E9740AB51206E4B513028002804387077E00E904F886058D04E42FFDEC6D
:200616003EFC7876E6B5050708E6B50402800280237F00EF2422F88F057E0074022DFDE4E5
:200636003EED29FEC000A8068606D000A6060FBF080040DF22223003187876E604F58212F7
:2006560003EB7876740126E40836F5821203EBC203223004087582FF1203EBC2042212035E
:16067600081204B01203CE1200D612047512064C12066880F522CF
:2006AD00000000000000005F00000007000700147F147F14242A072A122313086462374971
:2006CD005522500005030000001C2241000041221C00082A1C2A0808083E080800503000E2
:2006ED00000808080808006060000020100804023E5149453E00427F4000426151494621C7
:20070D0041454B311814127F1027454545393C4A4949300171090503364949493606494924
:20072D00291E003636000000563600000008142241141414141441221408000201510906A8
:20074D00324979413E7E1111117E7F494949363E414141227F4141221C7F494949417F09D5
:20076D000901013E414151327F0808087F00417F41002040413F017F081422417F404040E9
:20078D00407F0204027F7F0408107F3E4141413E7F090909063E4151215E7F091929464668
:2007AD004949493101017F01013F4040403F1F2040201F7F2018207F6314081463030478D6
:2007CD000403615149454300007F4141020408102041417F000004020102044040404040F5
:2007ED00000102040020545454787F484444383844444420384444487F3854545418087E4D
:20080D00090102081454543C7F0804047800447D40002040443D00007F10284400417F40DB
:20082D00007C041804787C0804047838444444387C14141408081414187C7C0804040848F7
:20084D0054545420043F4440203C4040207C1C2040201C3C4030403C44281028440C5050BC
:20086D00503C4464544C44000836410000007F000000413608000201020402FFFFFFFFFFD0
:06005800E478FFF6D8FD7C
:200036007900E94400601B7A0090088D780175A000E493F2A308B8000205A0D9F4DAF275DB
:02005600A0FF09
:1D068C00E5828516F0A4C582C0F08517F0A4D0F025F0C5838516F0A42583F5832206
:20005E007800E84400600A790175A000E4F309D8FC7800E84400600C7900900001E4F0A3A0
:04007E00D8FCD9FAD7
:0D0029007581771206A9E5826003020026AA
:0406A9007582002234
:00000001FF
