:0400000002001132B7
:03000B0002016887
:20006A00752B007521FF7522FF7523FF7524FF7525FF7526FF7527FF7528FFE4F52CF52DEB
:0F008A00F52EF52FF530F531F532F53302000E76
:03000E000201D319
:2000990043923F5391C0C294C295C290D290C291225392C05391C0C294C295C290D29122EC
:2000B900AF82C294C2957E00C2958EF005F07C017D008006EC2CFCED33FDD5F0F78F027B88
:2000D90000EA5204EB5205EC4D6004D2928002C2928EF005F07C017D008006EC2CFCED3387
:2000F900FDD5F0F7AA297B00EA5204EB5205EC4D6004D2938002C293D2950EBE080040A862
:20011900D29422AF8274F8252A4017AE2A8EF005F07401800225E0D5F0FBF4F5298F8212BF
:2001390000B922E52B2421F98782852B2A052B12011C74F8252B5003752B0022438E8053C6
:2001590089F0758A67758C7ED28CD2A9D2AF22C020C0E0C0F0C082C083C007C006C005C0E5
:2001790004C003C002C001C000C0D075D008052CE4B52C20052DB52D1B052EB52E16052FDA
:20019900B52F110530B5300C0531B531070532B53202053375D00012013C75D008D0D0D05F
:2001B90000D001D002D003D004D005D006D007D083D082D0F0D0E0D0203212015512009910
:2001D900753CE8753D03E4F53EF53FF540F541F542F543852C82852D83852EF0E52FAC3098
:2001F900AD31AE32AF331202C585823485833585F036F5378C388D398E3A8F3BE53445356F
:200219004536453745384539453A453B70B2FFEF2421F876FF0FC3EF6480948840F1753C6F
:20023900E8753D03E4F53EF53FF540F541F542F543852C82852D83852EF0E52FAC30AD310A
:20025900AE32AF331203FE85823485833585F036F5378C388D398E3A8F3B53343F753500D5
:20027900753600753700753800753900753A00753B00AF347E00753C088E3D8F828E83C08D
:2002990007C006120524AC82D006D007EC2421F987055307077E008FF005F074018002253D
:0C02B900E0D5F0FBF4FF5DF70201D92254
:06004000E478FFF6D8FD94
:20001E007900E94400601B7A00900560780175A000E493F2A308B8000205A0D9F4DAF27523
:02003E00A0FF21
:2002C50085824485834585F046F5478C488D498E4A8F4B7F007E00E543235401FD6003022F
:2002E5000364E53C253CF53CE53D33F53DE53E33F53EE53F33F53FE54033F540E54133F569
:2003050041E54233F542E54333F543C3E544953CE545953DE546953EE547953FE5489540BA
:20032500E5499541E54A9542E54B9543502BE543C313F543E54213F542E54113F541E540F0
:2003450013F540E53F13F53FE53E13F53EE53D13F53DE53C13F53C80060E8E070202DCC3E4
:20036500E544953CE545953DE546953EE547953FE5489540E5499541E54A9542E54B954370
:200385004031E544C3953CF544E545953DF545E546953EF546E547953FF547E5489540F54F
:2003A50048E5499541F549E54A9542F54AE54B9543F54BE543C313F543E54213F542E54154
:2003C50013F541E54013F540E53F13F53FE53E13F53EE53D13F53DE53C13F53C8F061FEE20
:1903E50060030203648544828545838546F0E547AC48AD49AE4AAF4B22B6
:2003FE0085824485834585F046F5478C488D498E4A8F4BE4F54CF54DF54EF54FF550F5517B
:20041E00F552F553755440E54B235401F555E5442544F544E54533F545E54633F546E5470D
:20043E0033F547E54833F548E54933F549E54A33F54AE54B33F54BE54C254CF54CE54D3367
:20045E00F54DE54E33F54EE54F33F54FE55033F550E55133F551E55233F552E55333F55328
:20047E00E5556003434C01C3E54C953CE54D953DE54E953EE54F953FE5509540E551954144
:20049E00E5529542E55395434034E54CC3953CF54CE54D953DF54DE54E953EF54EE54F954E
:2004BE003FF54FE5509540F550E5519541F551E5529542F552E5539543F553434401E5548C
:1D04DE0014FF8F5460030204258544828545838546F0E547AC48AD49AE4AAF4B2200
:200046007800E84400600A790175A000E4F309D8FC7800E84400600C7900900001E4F0A3B8
:04006600D8FCD9FAEF
:2004FB007A10E4FBFCE58225E0F582E58333F583EB33FBEC33FCEB953CF5F0EC953D4006AD
:09051B00FCABF0438201DADD22A1
:0D00110075815512055CE582600302000E4A
:20052400C2D5E58330E70DD2D5E4C39582F582E49583F583E53D30E70DB2D5E4C3953CF50A
:180544003CE4953DF53D1204FB30D50BE4C39582F582E49583F583228F
:04055C007582002282
:00000001FF
