:04000000020029329F
:03000B0002019857
:0100130032BA
:01001B0032B2
:030023000202983E
:20008200752C00752200752310752438752554752610752710752810752900785BE4F60868
:2000A200F608F608F608F608F608F608F678A3760078A4F608F608F608F608F608F608F6BD
:0700C20008F6C2000200264F
:03002600020331A1
:2000C90043923F5391C0C294C295C290D290C291225392C05391C0C294C295C290D29122BC
:2000E900AF82C294C2957E00C2958EF005F07C017D008006EC2CFCED33FDD5F0F78F027B58
:2001090000EA5204EB5205EC4D6004D2928002C2928EF005F07C017D008006EC2CFCED3356
:20012900FDD5F0F7AA2A7B00EA5204EB5205EC4D6004D2938002C293D2950EBE080040A830
:20014900D29422AF8274F8252B4017AE2B8EF005F07401800225E0D5F0FBF4F52A8F82128C
:2001690000E922E52C2422F98782852C2B052C12014C74F8252C5003752C0022438E80532F
:2001890089F0758A67758C7ED28CD2A9D2AF22C021C0E0C0F0C082C083C007C006C005C0B4
:2001A90004C003C002C001C000C0D075D008785B06B600200806B6001B0806B600160806D9
:2001C900B600110806B6000C0806B600070806B60002080678A3E6606478A4740126F52D42
:2001E900E40836F52EE40836F52FE40836F530E40836F531E40836F532E40836F533E4085D
:2002090036F534785BC3E52D96E52E0896E52F0896E5300896E5310896E5320896E5330899
:2002290096E5340896501678A3863575360090006375F04075D00012032F75D00875D000CE
:2002490012032B75D008D0D0D000D001D002D003D004D005D006D007D083D082D0F0D0E0B7
:20026900D0213285A2E053E03F85E0A275985075D7B875D6FF438E14438E01D2ACD2AF224F
:20028900AF822000FD8FE0A2D0D20085E09922C021C0E0C0F0C082C083C007C006C005C06C
:2002A90004C003C002C001C000C0D075D0001099028002C20030984D78A3860778A3EF049C
:2002C900F6EF2463F8A69978A3B64000401375374075380090006375F04012033078A37607
:2002E90000785B79A4E6F70809E6F70809E6F70809E6F70809E6F70809E6F70809E6F7088C
:2003090009E6F7C298D0D0D000D001D002D003D004D005D006D007D083D082D0F0D0E0D073
:20032900213212016C22222212018512026C1200C97541E8754203E4F543F544F545F54667
:20034900F547F548785B86820886830886F008E60886040886050886060886071204528588
:20036900823985833A85F03BF53C8C3D8D3E8E3F8F40E539453A453B453C453D453E453F3F
:20038900454070AD785BC308E694FA08E6940008E6940008E6940008E6940008E69400080E
:2003A900E69400408C7F00EF2422F876FF0FC3EF6480948840F17541E8754203E4F543F572
:2003C90044F545F546F547F548785B86820886830886F008E6088604088605088606088643
:2003E9000712058B85823985833A85F03BF53C8C3D8D3E8E3F8F4053393F753A00753B008E
:20040900753C00753D00753E00753F00754000AF397E007541088E428F828E83C007C006B1
:200429001206B1AC82D006D007EC2422F987055307077E008FF005F07401800225E0D5F044
:09044900FBF4FF5DF702033A2207
:06005800E478FFF6D8FD7C
:200036007900E94400601B7A009006ED780175A000E493F2A308B8000205A0D9F4DAF2757D
:02005600A0FF09
:2004520085824985834A85F04BF54C8C4D8D4E8E4F8F507F007E00E548235401FD60030273
:2004720004F1E5412541F541E54233F542E54333F543E54433F544E54533F545E54633F510
:2004920046E54733F547E54833F548C3E5499541E54A9542E54B9543E54C9544E54D9545E1
:2004B200E54E9546E54F9547E5509548502BE548C313F548E54713F547E54613F546E54521
:2004D20013F545E54413F544E54313F543E54213F542E54113F54180060E8E07020469C39A
:2004F200E5499541E54A9542E54B9543E54C9544E54D9545E54E9546E54F9547E550954892
:200512004031E549C39541F549E54A9542F54AE54B9543F54BE54C9544F54CE54D9545F57A
:200532004DE54E9546F54EE54F9547F54FE5509548F550E548C313F548E54713F547E5467A
:2005520013F546E54513F545E54413F544E54313F543E54213F542E54113F5418F061FEE5A
:1905720060030204F1854982854A83854BF0E54CAC4DAD4EAE4FAF502271
:20058B0085824985834A85F04BF54C8C4D8D4E8E4F8F50E4F551F552F553F554F555F556A6
:2005AB00F557F558755940E550235401F55AE5492549F549E54A33F54AE54B33F54BE54C3E
:2005CB0033F54CE54D33F54DE54E33F54EE54F33F54FE55033F550E5512551F551E5523398
:2005EB00F552E55333F553E55433F554E55533F555E55633F556E55733F557E55833F55859
:20060B00E55A6003435101C3E5519541E5529542E5539543E5549544E5559545E55695466F
:20062B00E5579547E55895484034E551C39541F551E5529542F552E5539543F553E5549579
:20064B0044F554E5559545F555E5569546F556E5579547F557E5589548F558434901E559AD
:1D066B0014FF8F5960030205B2854982854A83854BF0E54CAC4DAD4EAE4FAF5022B6
:20005E007800E84400600A790175A000E4F309D8FC7800E84400600C7900900001E4F0A3A0
:04007E00D8FCD9FAD7
:200688007A10E4FBFCE58225E0F582E58333F583EB33FBEC33FCEB9541F5F0EC9542400614
:0906A800FCABF0438201DADD2213
:0D0029007581AB1206E9E582600302002636
:2006B100C2D5E58330E70DD2D5E4C39582F582E49583F583E54230E70DB2D5E4C39541F572
:1806D10041E49542F54212068830D50BE4C39582F582E49583F5832263
:0406E90075820022F4
:00000001FF
