:0600000002006902054E3A
:03000B0002037578
:0100130032BA
:01001B0032B2
:030023000204874D
:01002B0032A2
:01003300329A
:01003B003292
:01004300328A
:01004B003282
:01005300327A
:01005B003272
:0300630002040292
:2000C2007822760078237610782476387825765478267610782776107828761078297600B6
:2000E200782A7600782BE4F608F608F608F608F608F608F608F678737600787476007875C7
:1401020076027876F608F6C200C201D202C203C20402006643
:0300660002072D61
:2001160043923F5391C0C294C295C290D290C291225392C05391C0C294C295C290D291226E
:20013600AF82C294C2957E00C2958EF005F07C017D008006EC2CFCED33FDD5F0F78F027B0A
:2001560000EA5204EB5205EC4D6004D2928002C2928EF005F07C017D008006EC2CFCED3309
:20017600FDD5F0F7AA107B00EA5204EB5205EC4D6004D2938002C293D2950EBE080040A8FD
:20019600D29422AF8274F825114018AE118EF005F07401800225E0D5F0FBF582EFF4F51049
:2001B60012013622782AE62422F98782782A8607782AEF04F68F11120199782AB608004048
:2001D60004782A760022AF82BF2000500302035B78227600782376007829E4F6FEEF24E07B
:2001F600F518EE34FFF519900005120745AE82AF837D008D0474022C2422F98D037C008ECF
:20021600128F13EB2512FBEC3513FCEB2466F582EC3407F583E49330E0067B807CFF8004B5
:200236007B007C008D027C00EA2512FAEC3513FCEA2466F582EC3407F583E49330E1067AC9
:20025600407C0080047A007C00EA2BFC8D027B00EA2512FAEB3513FBEA2466F582EB3407DD
:20027600F583E49330E2067A207B0080047A007B00EA2CFC8D027B00EA2512FAEB3513FB6E
:20029600EA2466F582EB3407F583E49330E3067A107B0080047A007B00EA2CFC8D027B0095
:2002B600EA2512FAEB3513FBEA2466F582EB3407F583E49330E4067A087B0080047A007B4F
:2002D60000EA2CFC8D027B00EA2512FAEB3513FBEA2466F582EB3407F583E49330E5067A0E
:2002F600047B0080047A007B00EA2CFC8D027B00EA2512FAEB3513FBEA2466F582EB34077A
:20031600F583E49330E6067A027B0080047A007B00EA2CFC8D027B00EA2512FAEB3513FBE7
:20033600EA2466F582EB3407F583E49330E7067A017B0080047A007B00EA2CF70DBD05003F
:20035600500302020922438E805389F0758A67758C7ED28CD2A9D2AF53B1F743B20822C0CF
:2003760021C0E0C0F0C082C083C007C006C005C004C003C002C001C000C0D075D008782BD5
:2003960006B600200806B6001B0806B600160806B600110806B6000C0806B600070806B67E
:2003B60000020806B2B375D0001205CE75D008D0D0D000D001D002D003D004D005D006D006
:2003D60007D083D082D0F0D0E0D0213285A2E053E03F85E0A275985075D7B875D6FF438ECC
:2003F60014438E01D2AC43AF04D2AF22C021C0E0C0F0C082C083C007C006C005C004C0035B
:20041600C002C001C000C0D075D0007873E6603578751630020C30022C78737974C3E79691
:2004360040237875C3748086F063F08095F04015787386147515007582331205D2787376F9
:200456000078747600D0D0D000D001D002D003D004D005D006D007D083D082D0F0D0E0D003
:200476002132AF822000FD8FE0A2D0D20085E09922C021C0E0C0F0C082C083C007C006C0EF
:2004960005C004C003C002C001C000C0D075D0001099028002C20030983578738607787353
:2004B600EF04F6EF2433F8A699300202D2017873B6400040147516407517007582331207EA
:2004D60000787376007874760078757630C298D0D0D000D001D002D003D004D005D006D021
:2004F60007D083D082D0F0D0E0D0213230022F30013278747973C3E6975014787486077876
:2005160074EF04F6EF2433F9878212047880E378747973C3E796500C7874760080067873E8
:20053600E67874F6C2012253B1FB53B2FBD2B2D2B2C288D2A8D2AF22C021C0E0C0F0C08217
:20055600C083C007C006C005C004C003C002C001C000C0D075D000108C028014C2A9782B11
:20057600E4F608F608F608F608F608F608F608F6782B06B600200806B6001B0806B6001661
:200596000806B600110806B6000C0806B600070806B600020806B2B31205CED0D0D000D077
:2005B60001D002D003D004D005D006D007D083D082D0F0D0E0D021321201BA22A982740162
:2005D600B5140614B51502800280268707BF2000400EBF800050098F82C0011201DCD00149
:2005F6008707BFFF07200202D204D202EF7002C2027402B51406E4B515028002801F200267
:200616001CD203E904F886078F067F0087057C00ED2FFFEC3EFE7876A60708A6067403B587
:200636001406E4B515028002804987077E00E904F886058D04E42FFDEC3EFC7876E6B505BE
:200656000708E6B5040280028029740229F88607BF20004012BF8000500D8F82C001C00026
:200676001201DCD000D0018607BFFF02D202EF7002C2027408B51406E4B515028002801978
:200696007F00EF2422F8EF29FEC000A8068606D000A6060FBF080040E9740AB51406E4B527
:2006B60015028002804387077E00E904F886058D04E42FFDEC3EFC7876E6B5050708E6B54D
:2006D6000402800280237F00EF2422F88F057E0074022DFDE43EED29FEC000A8068606D07B
:2006F60000A6060FBF080040DF222230031C7876E604F582120478787686060886070EBEF8
:2007160000010F8F82120478C203223004087582FF120478C2042212035C12053D1203E2C9
:0F07360012011612050212070112072180F52287
:20076600000000000000005F00000007000700147F147F14242A072A1223130864623749B7
:200786005522500005030000001C2241000041221C00082A1C2A0808083E08080050300028
:2007A600000808080808006060000020100804023E5149453E00427F40004261514946210D
:2007C60041454B311814127F1027454545393C4A494930017109050336494949360649496B
:2007E600291E003636000000563600000008142241141414141441221408000201510906EF
:20080600324979413E7E1111117E7F494949363E414141227F4141221C7F494949417F091B
:200826000901013E414151327F0808087F00417F41002040413F017F081422417F4040402F
:20084600407F0204027F7F0408107F3E4141413E7F090909063E4151215E7F0919294646AE
:200866004949493101017F01013F4040403F1F2040201F7F2018207F63140814630304781C
:200886000403615149454300007F4141020408102041417F0000040201020440404040403B
:2008A600000102040020545454787F484444383844444420384444487F3854545418087E93
:2008C600090102081454543C7F0804047800447D40002040443D00007F10284400417F4022
:2008E600007C041804787C0804047838444444387C14141408081414187C7C08040408483E
:2009060054545420043F4440203C4040207C1C2040201C3C4030403C44281028440C505002
:20092600503C4464544C44000836410000007F000000413608000201020402FFFFFFFFFF16
:06009800E478FFF6D8FD3C
:200076007900E94400601B7A00900946780175A000E493F2A308B8000205A0D9F4DAF275E1
:02009600A0FFC9
:1D074500E5828518F0A4C582C0F08519F0A4D0F025F0C5838518F0A42583F5832246
:20009E007800E84400600A790175A000E4F309D8FC7800E84400600C7900900001E4F0A360
:0400BE00D8FCD9FA97
:0D006900758177120762E582600302006670
:04076200758200227A
:00000001FF
