:04000000020029329F
:03000B0002019857
:0100130032BA
:01001B0032B2
:030023000202993D
:20008200752C007522007523107524387525547526107527107528107529007839E4F6088A
:2000A200F608F608F608F608F608F608F6788176007882F608F608F608F608F608F608F601
:0700C20008F6C2000200264F
:0300260002035181
:2000C90043923F5391C0C294C295C290D290C291225392C05391C0C294C295C290D29122BC
:2000E900AF82C294C2957E00C2958EF005F07C017D008006EC2CFCED33FDD5F0F78F027B58
:2001090000EA5204EB5205EC4D6004D2928002C2928EF005F07C017D008006EC2CFCED3356
:20012900FDD5F0F7AA2A7B00EA5204EB5205EC4D6004D2938002C293D2950EBE080040A830
:20014900D29422AF8274F8252B4017AE2B8EF005F07401800225E0D5F0FBF4F52A8F82128C
:2001690000E922E52C2422F98782852C2B052C12014C74F8252C5003752C0022438E80532F
:2001890089F0758A67758C7ED28CD2A9D2AF22C021C0E0C0F0C082C083C007C006C005C0B4
:2001A90004C003C002C001C000C0D075D008783906B600200806B6001B0806B600160806FB
:2001C900B600110806B6000C0806B600070806B6000208067881E660657882740126F52D85
:2001E900E40836F52EE40836F52FE40836F530E40836F531E40836F532E40836F533E4085D
:2002090036F5347839C3E52D96E52E0896E52F0896E5300896E5310896E5320896E53308BB
:2002290096E534089650177881863575360075824175D00012032D75D0087881760075D0E2
:200249000012032975D008D0D0D000D001D002D003D004D005D006D007D083D082D0F0D099
:20026900E0D0213285A2E053E03F85E0A275985075D7B875D6FF438E14438E01D2ACD2AF91
:2002890022AF822000FD8FE0A2D0D20085E09922C021C0E0C0F0C082C083C007C006C0050A
:2002A900C004C003C002C001C000C0D075D0001099028002C20030984A788186077881EF27
:2002C90004F6EF2441F8A6997881B640004010753740753800758241120350788176007834
:2002E900397982E6F70809E6F70809E6F70809E6F70809E6F70809E6F70809E6F70809E659
:20030900F7C298D0D0D000D001D002D003D004D005D006D007D083D082D0F0D0E0D021320F
:2003290012016C22AF827408B53506E4B53602800280137E00EE2422F9EE2FF88605A70599
:140349000EBE080040EF222212018512026D1200C980FE22C5
:06005800E478FFF6D8FD7C
:200036007900E94400601B7A00900361780175A000E493F2A308B8000205A0D9F4DAF2750C
:02005600A0FF09
:20005E007800E84400600A790175A000E4F309D8FC7800E84400600C7900900001E4F0A3A0
:04007E00D8FCD9FAD7
:0D00290075818912035DE5826003020026E7
:04035D007582002283
:00000001FF
