:060000000200290204C108
:03000B0002031DD0
:0100130032BA
:01001B0032B2
:03002300020420B4
:200082007822760078237610782476387825765478267610782776107828761078297600F6
:2000A200782A7600782BE4F608F608F608F608F608F608F608F6787376007874F608F6086E
:1000C200F608F608F608F608F608F6C20002002658
:0300260002056967
:2000D20043923F5391C0C294C295C290D290C291225392C05391C0C294C295C290D29122B3
:2000F200AF82C294C2957E00C2958EF005F07C017D008006EC2CFCED33FDD5F0F78F027B4F
:2001120000EA5204EB5205EC4D6004D2928002C2928EF005F07C017D008006EC2CFCED334D
:20013200FDD5F0F7AA107B00EA5204EB5205EC4D6004D2938002C293D2950EBE080040A841
:20015200D29422AF8274F825114018AE118EF005F07401800225E0D5F0FBF582EFF4F5108D
:200172001200F222782AE62422F98782782A8607782AEF04F68F11120155782AB608004015
:2001920004782A760022AF82BF2000500302030378227600782376007829E4F6FEEF24E017
:2001B200F51EEE34FFF51F900005120578AE82AF837D008D0474022C2422F98D037C00EB79
:2001D2002EFBEC3FFCEB2499F582EC3405F583E49330E0067B807CFF80047B007C008D02F4
:2001F2007C00EA2EFAEC3FFCEA2499F582EC3405F583E49330E1067A407C0080047A007C3F
:2002120000EA2BFC8D027B00EA2EFAEB3FFBEA2499F582EB3405F583E49330E2067A207B1C
:200232000080047A007B00EA2CFC8D027B00EA2EFAEB3FFBEA2499F582EB3405F583E493AF
:2002520030E3067A107B0080047A007B00EA2CFC8D027B00EA2EFAEB3FFBEA2499F582EB99
:200272003405F583E49330E4067A087B0080047A007B00EA2CFC8D027B00EA2EFAEB3FFB61
:20029200EA2499F582EB3405F583E49330E5067A047B0080047A007B00EA2CFC8D027B0072
:2002B200EA2EFAEB3FFBEA2499F582EB3405F583E49330E6067A027B0080047A007B00EA4E
:2002D2002CFC8D027B00EA2EFAEB3FFBEA2499F582EB3405F583E49330E7067A017B0080DF
:2002F200047A007B00EA2CF70DBD050050030201C522438E805389F0758A67758C7ED28C7A
:20031200D2A9D2AF53B1F743B20822C021C0E0C0F0C082C083C007C006C005C004C003C066
:2003320002C001C000C0D075D008782B06B600200806B6001B0806B600160806B600110836
:2003520006B6000C0806B600070806B6000208067873E660657874740126F512E40836F5E9
:2003720013E40836F514E40836F515E40836F516E40836F517E40836F518E40836F51978CF
:200392002BC3E51296E5130896E5140896E5150896E5160896E5170896E5180896E5190837
:2003B2009650177873861A751B0075823375D00012051D75D00878737600B2B375D0001206
:2003D200051975D008D0D0D000D001D002D003D004D005D006D007D083D082D0F0D0E0D07F
:2003F200213285A2E053E03F85E0A275985075D7B875D6FF438E14438E01D2ACD2AF22AFE6
:20041200822000FD8FE0A2D0D20085E09922C021C0E0C0F0C082C083C007C006C005C0048C
:20043200C003C002C001C000C0D075D0001099028002C20030984A787386077873EF04F682
:20045200EF2433F8A6997873B640004010751C40751D0075823312056878737600782B7953
:2004720074E6F70809E6F70809E6F70809E6F70809E6F70809E6F70809E6F70809E6F7C2D5
:2004920098D0D0D000D001D002D003D004D005D006D007D083D082D0F0D0E0D0213253B13A
:2004B200FB53B2FBD2B2D2B2C288D2A8D2AF22C021C0E0C0F0C082C083C007C006C005C0F8
:2004D20004C003C002C001C000C0D075D000108C028014C2A9782BE4F608F608F608F6080F
:2004F200F608F608F608F612031DD0D0D000D001D002D003D004D005D006D007D083D082E7
:20051200D0F0D0E0D0213212017622A9827401B51A0614B51B02800280158707BF2000406C
:200532000EBF800050098F82C001120198D0017408B51A06E4B51B02800280197F00EF2401
:2005520022F8EF29FEC000A8068606D000A6060FBF080040E922221203041204B01203F4B8
:060572001200D280FE22FF
:20059900000000000000005F00000007000700147F147F14242A072A122313086462374986
:2005B9005522500005030000001C2241000041221C00082A1C2A0808083E080800503000F7
:2005D900000808080808006060000020100804023E5149453E00427F4000426151494621DC
:2005F90041454B311814127F1027454545393C4A494930017109050336494949360649493A
:20061900291E003636000000563600000008142241141414141441221408000201510906BD
:20063900324979413E7E1111117E7F494949363E414141227F4141221C7F494949417F09EA
:200659000901013E414151327F0808087F00417F41002040413F017F081422417F404040FE
:20067900407F0204027F7F0408107F3E4141413E7F090909063E4151215E7F09192946467D
:200699004949493101017F01013F4040403F1F2040201F7F2018207F6314081463030478EB
:2006B9000403615149454300007F4141020408102041417F0000040201020440404040400A
:2006D900000102040020545454787F484444383844444420384444487F3854545418087E62
:2006F900090102081454543C7F0804047800447D40002040443D00007F10284400417F40F1
:20071900007C041804787C0804047838444444387C14141408081414187C7C08040408480C
:2007390054545420043F4440203C4040207C1C2040201C3C4030403C44281028440C5050D1
:20075900503C4464544C44000836410000007F000000413608000201020402FFFFFFFFFFE5
:06005800E478FFF6D8FD7C
:200036007900E94400601B7A00900779780175A000E493F2A308B8000205A0D9F4DAF275F0
:02005600A0FF09
:1D057800E582851EF0A4C582C0F0851FF0A4D0F025F0C583851EF0A42583F5832203
:20005E007800E84400600A790175A000E4F309D8FC7800E84400600C7900900001E4F0A3A0
:04007E00D8FCD9FAD7
:0D00290075817B120595E5826003020026BB
:040595007582002249
:00000001FF
