:060000000200290203A525
:03000B00020201ED
:0100130032BA
:01001B0032B2
:03002300020304D1
:20008200785276007853761078547638785576547856761078577610785876107859760076
:2000A200785A7600785BE4F608F608F608F608F608F608F608F678A3760078A4F608F608AE
:1000C200F608F608F608F608F608F6C20002002658
:03002600020425AC
:2000D20043923F5391C0C294C295C290D290C291225392C05391C0C294C295C290D29122B3
:2000F200AF82C294C2957E00C2958EF005F07C017D008006EC2CFCED33FDD5F0F78F027B4F
:2001120000EA5204EB5205EC4D6004D2928002C2928EF005F07C017D008006EC2CFCED334D
:20013200FDD5F0F7AA227B00EA5204EB5205EC4D6004D2938002C293D2950EBE080040A82F
:20015200D29422AF8274F825234017AE238EF005F07401800225E0D5F0FBF4F5228F82129B
:2001720000F222785AE62452F98782785A8607785AEF04F68F23120155785AB60800400421
:20019200785A760022AF82BF2000404978527600785376007859E4F6FEEF24E0F538EE34DE
:2001B200FFF5399000051206F1AE82AF837D008D0474022C2452F98D037C00EB2EFBEC3F96
:2001D200FCEB2412F582EC3407F583E493FCF70DBD050040DA22438E805389F0758A67756D
:2001F2008C7ED28CD2A9D2AF53B1F743B20822C021C0E0C0F0C082C083C007C006C005C0A7
:2002120004C003C002C001C000C0D075D008785B06B600200806B6001B0806B6001608066F
:20023200B600110806B6000C0806B600070806B60002080678A3E6606578A4740126F524E0
:20025200E40836F525E40836F526E40836F527E40836F528E40836F529E40836F52AE40829
:2002720036F52B785BC3E52496E5250896E5260896E5270896E5280896E5290896E52A0878
:2002920096E52B0896501778A3862C752D0075826375D00012040175D00878A37600B2B339
:2002B20075D0001203FD75D008D0D0D000D001D002D003D004D005D006D007D083D082D0D7
:2002D200F0D0E0D0213285A2E053E03F85E0A275985075D7B875D6FF438E14438E01D2ACE9
:2002F200D2AF22AF822000FD8FE0A2D0D20085E09922C021C0E0C0F0C082C083C007C006E5
:20031200C005C004C003C002C001C000C0D075D0001099028002C20030984A78A386077846
:20033200A3EF04F6EF2463F8A69978A3B640004010752E40752F0075826312042478A37665
:2003520000785B79A4E6F70809E6F70809E6F70809E6F70809E6F70809E6F70809E6F70822
:2003720009E6F7C298D0D0D000D001D002D003D004D005D006D007D083D082D0F0D0E0D00A
:20039200213253B1FB53B2FBD2B2D2B2C288D2A8D2AF22C021C0E0C0F0C082C083C007C04D
:2003B20006C005C004C003C002C001C000C0D075D000108C028014C2A9785BE4F608F60871
:2003D200F608F608F608F608F608F6120201D0D0D000D001D002D003D004D005D006D007CE
:2003F200D083D082D0F0D0E0D0213212017522AF827408B52C06E4B52D02800280137E001A
:20041200EE2452F9EE2FF88605A7050EBE080040EF22221201E81203941202D81200D275F1
:2004320038E8753903E4F53AF53BF53CF53DF53EF53F785B86820886830886F008E60886E6
:20045200040886050886060886071205F485823085833185F032F5338C348D358E368F3774
:2004720075381AE4F539F53AF53BF53CF53DF53EF53F8530828531838532F0E533AC34ADAC
:2004920035AE36AF371204BB85823085833185F032F5338C348D358E368F37AF3074412F6C
:0904B200F58212019702043122C7
:20071200000000000000005F00000007000700147F147F14242A072A12231308646237490B
:200732005522500005030000001C2241000041221C00082A1C2A0808083E0808005030007C
:20075200000808080808006060000020100804023E5149453E00427F400042615149462161
:2007720041454B311814127F1027454545393C4A49493001710905033649494936064949BF
:20079200291E00363600000056360000000814224114141414144122140800020151090643
:2007B200324979413E7E1111117E7F494949363E414141227F4141221C7F494949417F0970
:2007D2000901013E414151327F0808087F00417F41002040413F017F081422417F40404084
:2007F200407F0204027F7F0408107F3E4141413E7F090909063E4151215E7F091929464603
:200812004949493101017F01013F4040403F1F2040201F7F2018207F631408146303047870
:200832000403615149454300007F4141020408102041417F0000040201020440404040408F
:20085200000102040020545454787F484444383844444420384444487F3854545418087EE7
:20087200090102081454543C7F0804047800447D40002040443D00007F10284400417F4076
:20089200007C041804787C0804047838444444387C14141408081414187C7C080404084892
:2008B20054545420043F4440203C4040207C1C2040201C3C4030403C44281028440C505057
:2008D200503C4464544C44000836410000007F000000413608000201020402FFFFFFFFFF6B
:06005800E478FFF6D8FD7C
:200036007900E94400601B7A009008F2780175A000E493F2A308B8000205A0D9F4DAF27576
:02005600A0FF09
:2004BB0085824085834185F042F5438C448D458E468F477F007E00E53F235401FD6003025B
:2004DB00055AE5382538F538E53933F539E53A33F53AE53B33F53BE53C33F53CE53D33F5A9
:2004FB003DE53E33F53EE53F33F53FC3E5409538E5419539E542953AE543953BE544953CFF
:20051B00E545953DE546953EE547953F502BE53FC313F53FE53E13F53EE53D13F53DE53C2C
:20053B0013F53CE53B13F53BE53A13F53AE53913F539E53813F53880060E8E070204D2C318
:20055B00E5409538E5419539E542953AE543953BE544953CE545953DE546953EE547953FB8
:20057B004031E540C39538F540E5419539F541E542953AF542E543953BF543E544953CF58F
:20059B0044E545953DF545E546953EF546E547953FF547E53FC313F53FE53E13F53EE53D98
:2005BB0013F53DE53C13F53CE53B13F53BE53A13F53AE53913F539E53813F5388F061FEE54
:1905DB00600302055A8540828541838542F0E543AC44AD45AE46AF4722E6
:2005F40085824085834185F042F5438C448D458E468F47E4F548F549F54AF54BF54CF54DBB
:20061400F54EF54F755040E547235401F551E5402540F540E54133F541E54233F542E54349
:2006340033F543E54433F544E54533F545E54633F546E54733F547E5482548F548E54933A3
:20065400F549E54A33F54AE54B33F54BE54C33F54CE54D33F54DE54E33F54EE54F33F54F64
:20067400E5516003434801C3E5489538E5499539E54A953AE54B953BE54C953CE54D953D84
:20069400E54E953EE54F953F4034E548C39538F548E5499539F549E54A953AF54AE54B958E
:2006B4003BF54BE54C953CF54CE54D953DF54DE54E953EF54EE54F953FF54F434001E550D4
:1D06D40014FF8F50600302061B8540828541838542F0E543AC44AD45AE46AF472234
:1D06F100E5828538F0A4C582C0F08539F0A4D0F025F0C5838538F0A42583F583223B
:20005E007800E84400600A790175A000E4F309D8FC7800E84400600C7900900001E4F0A3A0
:04007E00D8FCD9FAD7
:0D0029007581AB12070EE582600302002610
:04070E0075820022CE
:00000001FF
